:02000000FF28D7
:0E0006008312031321088A00200882000800DC
:100014008312031307168030F00080302906700223
:10002400031D16282808033C031C1B2887110715E9
:100034001C28871500302906031D222800302806B5
:0C004400031D2728071287110711080070
:1000500083120313871F31280130F0000030F100B4
:0C0060003528FF30F000FF30F1000800F0
:10006C000030831203132306031D3E2802302206A0
:10007C00031D7528871107150330F1000030F200BD
:10008C0080307206F00080307002031D4F28003063
:10009C007102031C74280330A4000030A500710801
:1000AC0086000630FB001330FC00AD30FD00FD0B6C
:1000BC005D28FC0B5D28FB0B5D2800000000003068
:1000CC007206031D6B2800307106031D6F28071282
:1000DC0007110130F102031CF2034628B12800304D
:1000EC002306031D7B2803302206031DB1280713AA
:1000FC0087160330F1000030F20080307206F000F9
:10010C0080307002031D8C2800307102031CB12852
:10011C000230A4000030A500710886000630FB00F8
:10012C001330FC00AD30FD00FD0B9A28FC0B9A2817
:10013C00FB0B9A280000000000307206031DA82853
:10014C0000307106031DAC28871087120130F102B4
:08015C00031CF20383280800D4
:100164000030831203132506031DBA280230240627
:10017400031DC328A401A5010130F0000030F100E3
:10018400D42800302506031DC92803302406031D86
:10019400D028A401A501F001F101D428FF30F0001A
:0601A400FF30F10008002D
:1001AA008312031387148030F0008030290670020E
:1001BA00031DE1282808033C031CE62807138716B9
:1001CA00E728071700302906031DED280030280606
:0C01DA00031DF22887100713871208008D
:1001E60003208A110A128000840AA00A0319A10AB0
:0801F600F003031DF3280800CB
:1001FE00831603138601813087008801FF30831236
:10020E008800860187010230A2000030A30023304F
:10021E00A6000030A70080302706F0008030700264
:10022E00031D1B2900302602031C8B2900302706D4
:10023E00031D23291F302606031D2A290630A60278
:10024E00031CA703362900302706031D30290F3063
:10025E002606031D36290630A602031CA703871F98
:10026E003A29260886002608A8002708A9000A2091
:10027E000630FB001330FC00AD30FD00FD0B4529B0
:10028E00FC0B4529FB0B452900000000871B7B2931
:10029E008030F000803027067002031D5829260892
:1002AE00033C031C5D292608860086298601071853
:1002BE006B29282000307106031D67290130700656
:1002CE00031D6A296B295E29282000307106031D43
:1002DE00722901307006031D79292430A6000030E2
:1002EE00A700862936207C298629B2200030710687
:1002FE00031D832900307006031D86298B290130CA
:10030E00A602031CA70312290330A2000030A3008B
:10031E001530A6000030A70080302706F000803090
:10032E007002031D9C2900302602031CFF29003099
:10033E002706031DA4290F302606031DAA29063001
:10034E00A602031CA703871FAE29260886002608CF
:10035E00A8002708A900D5200630FB001330FC00AA
:10036E00AD30FD00FD0BB929FC0BB929FB0BB929EA
:10037E0000000000871BEF298030F0008030270638
:10038E007002031DCC292608033C031CD129260824
:10039E008600FA2986010718DF2928200030710609
:1003AE00031DDB2901307006031DDE29DF29D2294A
:1003BE00282000307106031DE62901307006031D4A
:1003CE00ED291630A6000030A700FA293620F029B4
:1003DE00FA29B22000307106031DF729013070068C
:1003EE00031DFA29FF290130A602031CA703932936
:0403FE000A29002A9E
:02400E004A2F37
:00000001FF
